{"abi":[{"type":"constructor","inputs":[{"name":"name","type":"string","internalType":"string"},{"name":"symbol","type":"string","internalType":"string"},{"name":"_description","type":"string","internalType":"string"},{"name":"_imageURL","type":"string","internalType":"string"},{"name":"initialAccount","type":"address","internalType":"address"},{"name":"initialBalance","type":"uint256","internalType":"uint256"}],"stateMutability":"nonpayable"},{"type":"function","name":"DOMAIN_SEPARATOR","inputs":[],"outputs":[{"name":"","type":"bytes32","internalType":"bytes32"}],"stateMutability":"view"},{"type":"function","name":"allowance","inputs":[{"name":"","type":"address","internalType":"address"},{"name":"","type":"address","internalType":"address"}],"outputs":[{"name":"","type":"uint256","internalType":"uint256"}],"stateMutability":"view"},{"type":"function","name":"approve","inputs":[{"name":"spender","type":"address","internalType":"address"},{"name":"amount","type":"uint256","internalType":"uint256"}],"outputs":[{"name":"","type":"bool","internalType":"bool"}],"stateMutability":"nonpayable"},{"type":"function","name":"balanceOf","inputs":[{"name":"","type":"address","internalType":"address"}],"outputs":[{"name":"","type":"uint256","internalType":"uint256"}],"stateMutability":"view"},{"type":"function","name":"decimals","inputs":[],"outputs":[{"name":"","type":"uint8","internalType":"uint8"}],"stateMutability":"view"},{"type":"function","name":"description","inputs":[],"outputs":[{"name":"","type":"string","internalType":"string"}],"stateMutability":"view"},{"type":"function","name":"imageURL","inputs":[],"outputs":[{"name":"","type":"string","internalType":"string"}],"stateMutability":"view"},{"type":"function","name":"name","inputs":[],"outputs":[{"name":"","type":"string","internalType":"string"}],"stateMutability":"view"},{"type":"function","name":"nonces","inputs":[{"name":"","type":"address","internalType":"address"}],"outputs":[{"name":"","type":"uint256","internalType":"uint256"}],"stateMutability":"view"},{"type":"function","name":"permit","inputs":[{"name":"owner","type":"address","internalType":"address"},{"name":"spender","type":"address","internalType":"address"},{"name":"value","type":"uint256","internalType":"uint256"},{"name":"deadline","type":"uint256","internalType":"uint256"},{"name":"v","type":"uint8","internalType":"uint8"},{"name":"r","type":"bytes32","internalType":"bytes32"},{"name":"s","type":"bytes32","internalType":"bytes32"}],"outputs":[],"stateMutability":"nonpayable"},{"type":"function","name":"symbol","inputs":[],"outputs":[{"name":"","type":"string","internalType":"string"}],"stateMutability":"view"},{"type":"function","name":"totalSupply","inputs":[],"outputs":[{"name":"","type":"uint256","internalType":"uint256"}],"stateMutability":"view"},{"type":"function","name":"transfer","inputs":[{"name":"to","type":"address","internalType":"address"},{"name":"amount","type":"uint256","internalType":"uint256"}],"outputs":[{"name":"","type":"bool","internalType":"bool"}],"stateMutability":"nonpayable"},{"type":"function","name":"transferFrom","inputs":[{"name":"from","type":"address","internalType":"address"},{"name":"to","type":"address","internalType":"address"},{"name":"amount","type":"uint256","internalType":"uint256"}],"outputs":[{"name":"","type":"bool","internalType":"bool"}],"stateMutability":"nonpayable"},{"type":"event","name":"Approval","inputs":[{"name":"owner","type":"address","indexed":true,"internalType":"address"},{"name":"spender","type":"address","indexed":true,"internalType":"address"},{"name":"amount","type":"uint256","indexed":false,"internalType":"uint256"}],"anonymous":false},{"type":"event","name":"Transfer","inputs":[{"name":"from","type":"address","indexed":true,"internalType":"address"},{"name":"to","type":"address","indexed":true,"internalType":"address"},{"name":"amount","type":"uint256","indexed":false,"internalType":"uint256"}],"anonymous":false}],"bytecode":{"object":"0x60e06040523480156200001157600080fd5b506040516200113838038062001138833981016040819052620000349162000358565b85856012826000908051906020019062000050929190620001ea565b50815162000066906001906020850190620001ea565b507fff0000000000000000000000000000000000000000000000000000000000000060f882901b166080524660a0526200009f620000e9565b60c05250508451620000ba91506006906020870190620001ea565b508251620000d0906007906020860190620001ea565b50620000dd828262000176565b50505050505062000585565b60007f8b73c3c69bb8fe3d512ecc4cf759cc79239f7b179b0ffacaa9a75d522b39400f60006040516200011d919062000427565b6040519081900381206200015b92917fc89efdaa54c0f20c7adf612882df0950f5a951637e0307cdcb4c672f298b8bc69046903090602001620004cc565b60405160208183030381529060405280519060200120905090565b80600260008282546200018a91906200050d565b90915550506001600160a01b038216600081815260036020526040808220805485019055517fddf252ad1be2c89b69c2b068fc378daa952ba7f163c4a11628f55a4df523b3ef90620001de908590620004f8565b60405180910390a35050565b828054620001f89062000532565b90600052602060002090601f0160209004810192826200021c576000855562000267565b82601f106200023757805160ff191683800117855562000267565b8280016001018555821562000267579182015b82811115620002675782518255916020019190600101906200024a565b506200027592915062000279565b5090565b5b808211156200027557600081556001016200027a565b80516001600160a01b0381168114620002a857600080fd5b919050565b600082601f830112620002be578081fd5b81516001600160401b0380821115620002db57620002db6200056f565b6040516020601f8401601f19168201810183811183821017156200030357620003036200056f565b60405283825285840181018710156200031a578485fd5b8492505b838310156200033d57858301810151828401820152918201916200031e565b838311156200034e57848185840101525b5095945050505050565b60008060008060008060c0878903121562000371578182fd5b86516001600160401b038082111562000388578384fd5b620003968a838b01620002ad565b97506020890151915080821115620003ac578384fd5b620003ba8a838b01620002ad565b96506040890151915080821115620003d0578384fd5b620003de8a838b01620002ad565b95506060890151915080821115620003f4578384fd5b506200040389828a01620002ad565b935050620004146080880162000290565b915060a087015190509295509295509295565b81546000908190600281046001808316806200044457607f831692505b60208084108214156200046557634e487b7160e01b87526022600452602487fd5b8180156200047c57600181146200048e57620004be565b60ff19861689528489019650620004be565b620004998a62000501565b885b86811015620004b65781548b8201529085019083016200049b565b505084890196505b509498975050505050505050565b9485526020850193909352604084019190915260608301526001600160a01b0316608082015260a00190565b90815260200190565b60009081526020902090565b600082198211156200052d57634e487b7160e01b81526011600452602481fd5b500190565b6002810460018216806200054757607f821691505b602082108114156200056957634e487b7160e01b600052602260045260246000fd5b50919050565b634e487b7160e01b600052604160045260246000fd5b60805160f81c60a05160c051610b80620005b8600039600061043501526000610401015260006103db0152610b806000f3fe608060405234801561001057600080fd5b50600436106100ea5760003560e01c80637284e4161161008c578063a9059cbb11610066578063a9059cbb146101a8578063b90497e0146101bb578063d505accf146101c3578063dd62ed3e146101d8576100ea565b80637284e416146101855780637ecebe001461018d57806395d89b41146101a0576100ea565b806323b872dd116100c857806323b872dd14610142578063313ce567146101555780633644e5151461016a57806370a0823114610172576100ea565b806306fdde03146100ef578063095ea7b31461010d57806318160ddd1461012d575b600080fd5b6100f76101eb565b6040516101049190610a20565b60405180910390f35b61012061011b3660046108af565b610279565b604051610104919061098e565b6101356102e3565b6040516101049190610999565b610120610150366004610803565b6102e9565b61015d6103d9565b6040516101049190610ad2565b6101356103fd565b6101356101803660046107b0565b61045a565b6100f761046c565b61013561019b3660046107b0565b610479565b6100f761048b565b6101206101b63660046108af565b610498565b6100f761050e565b6101d66101d136600461083e565b61051b565b005b6101356101e63660046107d1565b6106ee565b600080546101f890610b0f565b80601f016020809104026020016040519081016040528092919081815260200182805461022490610b0f565b80156102715780601f1061024657610100808354040283529160200191610271565b820191906000526020600020905b81548152906001019060200180831161025457829003601f168201915b505050505081565b3360008181526004602090815260408083206001600160a01b038716808552925280832085905551919290917f8c5be1e5ebec7d5bd14f71427d1e84f3dd0314c0f7b2291e5b200ac8c7c3b925906102d2908690610999565b60405180910390a350600192915050565b60025481565b6001600160a01b03831660009081526004602090815260408083203384529091528120546000198114610345576103208382610aec565b6001600160a01b03861660009081526004602090815260408083203384529091529020555b6001600160a01b0385166000908152600360205260408120805485929061036d908490610aec565b90915550506001600160a01b03808516600081815260036020526040908190208054870190555190918716907fddf252ad1be2c89b69c2b068fc378daa952ba7f163c4a11628f55a4df523b3ef906103c6908790610999565b60405180910390a3506001949350505050565b7f000000000000000000000000000000000000000000000000000000000000000081565b60007f000000000000000000000000000000000000000000000000000000000000000046146104335761042e61070b565b610455565b7f00000000000000000000000000000000000000000000000000000000000000005b905090565b60036020526000908152604090205481565b600680546101f890610b0f565b60056020526000908152604090205481565b600180546101f890610b0f565b336000908152600360205260408120805483919083906104b9908490610aec565b90915550506001600160a01b038316600081815260036020526040908190208054850190555133907fddf252ad1be2c89b69c2b068fc378daa952ba7f163c4a11628f55a4df523b3ef906102d2908690610999565b600780546101f890610b0f565b428410156105445760405162461bcd60e51b815260040161053b90610a9b565b60405180910390fd5b600060016105506103fd565b6001600160a01b038a1660009081526005602090815260409182902080546001810190915591516105ad927f6e71edae12b1b97f4d1f60370fef10105fa2faae0126114a169c64845d6126c9928e928e928e9290918e91016109a2565b604051602081830303815290604052805190602001206040516020016105d4929190610973565b604051602081830303815290604052805190602001208585856040516000815260200160405260405161060a9493929190610a02565b6020604051602081039080840390855afa15801561062c573d6000803e3d6000fd5b5050604051601f1901519150506001600160a01b038116158015906106625750876001600160a01b0316816001600160a01b0316145b61067e5760405162461bcd60e51b815260040161053b90610a73565b6001600160a01b0390811660009081526004602090815260408083208a8516808552925291829020889055905190918916907f8c5be1e5ebec7d5bd14f71427d1e84f3dd0314c0f7b2291e5b200ac8c7c3b925906106dd908990610999565b60405180910390a350505050505050565b600460209081526000928352604080842090915290825290205481565b60007f8b73c3c69bb8fe3d512ecc4cf759cc79239f7b179b0ffacaa9a75d522b39400f600060405161073d91906108d8565b60405190819003812061077992917fc89efdaa54c0f20c7adf612882df0950f5a951637e0307cdcb4c672f298b8bc690469030906020016109d6565b60405160208183030381529060405280519060200120905090565b80356001600160a01b03811681146107ab57600080fd5b919050565b6000602082840312156107c1578081fd5b6107ca82610794565b9392505050565b600080604083850312156107e3578081fd5b6107ec83610794565b91506107fa60208401610794565b90509250929050565b600080600060608486031215610817578081fd5b61082084610794565b925061082e60208501610794565b9150604084013590509250925092565b600080600080600080600060e0888a031215610858578283fd5b61086188610794565b965061086f60208901610794565b95506040880135945060608801359350608088013560ff81168114610892578384fd5b9699959850939692959460a0840135945060c09093013592915050565b600080604083850312156108c1578182fd5b6108ca83610794565b946020939093013593505050565b81546000908190600281046001808316806108f457607f831692505b602080841082141561091457634e487b7160e01b87526022600452602487fd5b818015610928576001811461093957610965565b60ff19861689528489019650610965565b6109428a610ae0565b885b8681101561095d5781548b820152908501908301610944565b505084890196505b509498975050505050505050565b61190160f01b81526002810192909252602282015260420190565b901515815260200190565b90815260200190565b9586526001600160a01b0394851660208701529290931660408501526060840152608083019190915260a082015260c00190565b9485526020850193909352604084019190915260608301526001600160a01b0316608082015260a00190565b93845260ff9290921660208401526040830152606082015260800190565b6000602080835283518082850152825b81811015610a4c57858101830151858201604001528201610a30565b81811115610a5d5783604083870101525b50601f01601f1916929092016040019392505050565b6020808252600e908201526d24a72b20a624a22fa9a4a3a722a960911b604082015260600190565b60208082526017908201527f5045524d49545f444541444c494e455f45585049524544000000000000000000604082015260600190565b60ff91909116815260200190565b60009081526020902090565b600082821015610b0a57634e487b7160e01b81526011600452602481fd5b500390565b600281046001821680610b2357607f821691505b60208210811415610b4457634e487b7160e01b600052602260045260246000fd5b5091905056fea2646970667358221220549d86f7f8fc0ec82346bc6dd55fa863cf4e7462c36f565ea44eceb27f235f9364736f6c63430008000033","linkReferences":{}},"methodIdentifiers":{"DOMAIN_SEPARATOR()":"3644e515","allowance(address,address)":"dd62ed3e","approve(address,uint256)":"095ea7b3","balanceOf(address)":"70a08231","decimals()":"313ce567","description()":"7284e416","imageURL()":"b90497e0","name()":"06fdde03","nonces(address)":"7ecebe00","permit(address,address,uint256,uint256,uint8,bytes32,bytes32)":"d505accf","symbol()":"95d89b41","totalSupply()":"18160ddd","transfer(address,uint256)":"a9059cbb","transferFrom(address,address,uint256)":"23b872dd"},"id":21}